:1000000012C02CC02BC02AC029C028C027C026C0BF
:1000100025C024C023C022C021C020C01FC01EC0D4
:100020001DC01CC01BC011241FBECFE5D4E0DEBF25
:10003000CDBF10E0A0E6B0E0ECECF0E002C005902F
:100040000D92A036B107D9F710E0A0E6B0E001C0EC
:100050001D92A036B107E1F702D036C0D1CF8FEFA5
:1000600081BB14BA8EE187BB60E1E2E072E183B349
:1000700090E023B330E0287030709498AC01417068
:10008000507080FD04C02115310509F418BA4130C3
:10009000510541F42115310579F4E8BB62BB40E01C
:1000A00050E003C04115510539F42830310521F4E1
:1000B00068BB62BB20E030E041305105C1F628301A
:0C00C0003105A9F678BBD3CFF894FFCF30
:00000001FF
