:1000000012C02CC02BC02AC029C028C027C026C0BF
:1000100025C024C023C022C021C020C01FC01EC0D4
:100020001DC01CC01BC011241FBECFE5D4E0DEBF25
:10003000CDBF11E0A0E6B0E0EEE2F8E002C005902E
:100040000D92A836B107D9F711E0A8E6B1E001C0DA
:100050001D92A836B107E1F72ED0E7C3D1CFCF92DA
:10006000DF92EF92FF920F931F93CF93DF9320E0E5
:1000700030E048E352E433D07B018C01C0E0D0E0B3
:10008000CC24DD2404C0C6010197F1F72196BE01FE
:10009000882777FD8095982F42D1A801970114D128
:1000A00087FDF1CFDF91CF911F910F91FF90EF90DE
:1000B000DF90CF9008958EE187BB42E120E030E0F1
:1000C000B09BFECF48BB80E090E004C0F9013197BF
:1000D000F1F70196863E9105C9F718BAF1CFA0E273
:1000E000B0E0E4E7F0E06AC369837A838B839C83A2
:1000F0002D833E834F835887CE010196BE01675FF3
:100100007F4F8BD2CE010596BE016F5E7F4F85D2A9
:100110009985923088F089898230C8F0943019F43A
:10012000823051F404C0843029F4923081F480E6A6
:1001300090E0C6C0923049F420E09A858A899813ED
:1001400021E02A87CE010996BBC0823049F420E025
:100150009A858A89981321E02A8BCE014196B0C0F6
:100160002D843E844F8458886D887E888F88988C33
:10017000EE24FF248701AA24BB24650140E050E05F
:1001800060E070E0E0E0F0E0C10181709070892BE8
:10019000E9F0E60CF71C081D191D9A01AB012A0DA8
:1001A0003B1D4C1D5D1D80E090E0A0E0B0E0E6143A
:1001B000F7040805190520F481E090E0A0E0B0E024
:1001C000BA01A901480F591F6A1F7B1FAA0CBB1C4B
:1001D000CC1CDD1C97FE08C081E090E0A0E0B0E000
:1001E000A82AB92ACA2ADB2A3196E032F10549F059
:1001F000660C771C881C991C569447943794279456
:10020000C3CFFA85EA892B893C898B859C85280F89
:10021000391F2E5F3F4F17C0CA0181709070892B24
:1002200061F016950795F794E79480E090E0A0E0E0
:10023000B0E8E82AF92A0A2B1B2B76956795579583
:1002400047952F5F3F4F77FDE7CF0CC0440F551FF9
:10025000661F771F17FD4160EE0CFF1C001F111F6A
:1002600021503040403090E0590790E0690790E419
:10027000790760F32B8F3C8FDB01CA018F77907079
:10028000A070B07080349105A105B10561F447FDFF
:100290000AC0E114F1040105110529F0405C5F4F2B
:1002A0006F4F7F4F40781A8EFE1711F081E08A8FD2
:1002B0004D8F5E8F6F8F78A383E0898FCE01499633
:1002C000D7D0A096E2E196C2A8E1B0E0E9E6F1E07D
:1002D00081C269837A838B839C832D833E834F8382
:1002E000588789E0E82EF12CEC0EFD1ECE01019618
:1002F000B70193D18E010F5E1F4FCE010596B80155
:100300008CD18985823038F08989823020F0C7010C
:10031000B801FBD101C081E06896E6E077C2A8E0B1
:10032000B0E0E4E9F1E053C29B01AC0183E08983D2
:10033000DA01C9018827B7FD83959927AA27BB272A
:10034000B82E211531054105510519F482E0898344
:1003500039C08823A9F0203080E0380780E04807C2
:1003600080E8580729F460E070E080E09FEC2EC040
:10037000EE24FF248701E21AF30A040B150B02C0D6
:1003800079018A018EE1C82ED12CDC82CB82ED82EC
:10039000FE820F831887C801B7011BD0019718167A
:1003A000190684F4082E04C0EE0CFF1C001F111F58
:1003B0000A94D2F7ED82FE820F831887C81AD90AF1
:1003C000DC82CB82BA82CE01019652D02896E9E037
:1003D0001AC2EF92FF920F931F937B018C0180E072
:1003E000E81680E0F80681E0080780E0180788F446
:1003F0008FEFE816F1040105110531F028F088E0CF
:1004000090E0A0E0B0E017C080E090E0A0E0B0E0B5
:1004100012C080E0E81680E0F80680E0080781E07E
:10042000180728F088E190E0A0E0B0E004C080E187
:1004300090E0A0E0B0E020E230E040E050E0281B97
:10044000390B4A0B5B0B04C016950795F794E7949C
:100450008A95D2F7F701E859FF4F8081281B3109AF
:1004600041095109C9011F910F91FF90EF90089523
:10047000DF92EF92FF920F931F93FC01E480F580CF
:1004800006811781D1808081823048F480E090E03D
:10049000A0E1B0E0E82AF92A0A2B1B2BA5C0843082
:1004A00009F49FC0823021F4EE24FF24870105C0A7
:1004B000E114F1040105110519F4E0E0F0E096C043
:1004C000628173819FEF623879070CF05BC022E88C
:1004D0003FEF261B370B2A3131052CF020E030E0AE
:1004E00040E050E02AC0B801A701022E04C0769572
:1004F0006795579547950A94D2F781E090E0A0E080
:10050000B0E004C0880F991FAA1FBB1F2A95D2F71D
:100510000197A109B1098E219F21A023B123009742
:10052000A105B10521F081E090E0A0E0B0E09A01E2
:10053000AB01282B392B4A2B5B2BDA01C9018F77B2
:100540009070A070B07080349105A105B10539F4A8
:1005500027FF09C0205C3F4F4F4F5F4F04C0215C15
:100560003F4F4F4F5F4FE0E0F0E02030A0E03A0710
:10057000A0E04A07A0E45A0710F0E1E0F0E07901BA
:100580008A0127C06038710564F5FB01E158FF4F0F
:10059000D801C7018F779070A070B070803491053A
:1005A000A105B10539F4E7FE0DC080E490E0A0E0BC
:1005B000B0E004C08FE390E0A0E0B0E0E80EF91EE8
:1005C0000A1F1B1F17FF05C016950795F794E794A0
:1005D000319687E016950795F794E7948A95D1F7B9
:1005E00005C0EE24FF248701EFEFF0E06E2F679542
:1005F00066276795902F9F77D794DD24D7948E2F09
:100600008695492F462B582F5D29B701CA011F91A6
:100610000F91FF90EF90DF900895FC01DB01408186
:1006200051812281622F6F7770E0221F2227221FC3
:100630009381892F880F822B282F30E0991F9927CB
:10064000991F11969C93119721153105A9F5411514
:1006500051056105710511F482E037C082E89FEF12
:1006600013969C938E9312979A01AB0167E0220F29
:10067000331F441F551F6A95D1F783E08C930DC03B
:10068000220F331F441F551F12968D919C91139773
:10069000019713969C938E931297203080E0380731
:1006A00080E0480780E4580758F314962D933D9353
:1006B0004D935C93179708952F3F310579F44115B9
:1006C00051056105710519F484E08C93089564FF68
:1006D00003C081E08C9312C01C9210C02F57304091
:1006E00013963C932E93129783E08C9387E0440FEC
:1006F000551F661F771F8A95D1F7706414964D9326
:100700005D936D937C93179708951F93DC01FB0114
:100710009C91923008F447C08081823008F443C035
:10072000943051F411961C91843099F58181682F91
:1007300070E0611B71093FC0843021F0923031F4C8
:100740008230B9F18181882389F12DC011961C91E5
:1007500011978230F1F081811817D9F412962D91FA
:100760003C911397828193818217930794F0281705
:100770003907BCF014968D919D910D90BC91A02DE0
:100780002481358146815781281739074A075B073D
:1007900018F4112341F00AC082179307A407B50784
:1007A00040F4112319F061E070E005C06FEF7FEFB6
:1007B00002C060E070E0CB011F9108952F923F923C
:1007C0004F925F926F927F928F929F92AF92BF9261
:1007D000CF92DF92EF92FF920F931F93CF93DF930D
:1007E000CDB7DEB7CA1BDB0B0FB6F894DEBF0FBE6A
:1007F000CDBF09942A88398848885F846E847D84B7
:100800008C849B84AA84B984C884DF80EE80FD80B8
:100810000C811B81AA81B981CE0FD11D0FB6F8942E
:0E082000DEBF0FBECDBFED010895F894FFCFEF
:10082E0000000000000000000001020203030303A9
:10083E000404040404040404050505050505050562
:10084E000505050505050505060606060606060642
:10085E00060606060606060606060606060606062A
:10086E000606060606060606070707070707070712
:10087E0007070707070707070707070707070707FA
:10088E0007070707070707070707070707070707EA
:10089E0007070707070707070707070707070707DA
:1008AE0007070707070707070808080808080808C2
:1008BE0008080808080808080808080808080808AA
:1008CE00080808080808080808080808080808089A
:1008DE00080808080808080808080808080808088A
:1008EE00080808080808080808080808080808087A
:1008FE00080808080808080808080808080808086A
:10090E000808080808080808080808080808080859
:10091E000808080808080808080808080808080849
:08092E00080808080808080881
:00000001FF
