:1000000012C02CC02BC02AC029C028C027C026C0BF
:1000100025C024C023C022C021C020C01FC01EC0D4
:100020001DC01CC01BC011241FBECFE5D4E0DEBF25
:10003000CDBF10E0A0E6B0E0EAEEF0E002C005902F
:100040000D92A036B107D9F710E0A0E6B0E001C0EC
:100050001D92A036B107E1F702D045C0D1CF8FEF96
:1000600081BB14BA8EE187BB60E1FEE1E2E172E0A0
:1000700083B390E023B3422F50E04870507022B316
:10008000209522BB9C012170307080FD03C0483058
:10009000510509F462BB2115310521F441155105C3
:1000A00009F4F8BB2130310539F44115510521F42B
:1000B00068BB62BB20E030E080E04830510509F4C5
:1000C00081E02115310529F4882319F078BB62BB42
:1000D000CFCF2130310561F6882351F2E8BB82B3DE
:0A00E000809582BBC5CFF894FFCFD6
:00000001FF
